:03000000020B9060
:0C0B9000787FE4F6D8FD75811F020AEAA8
:100AEA00C2A6D2A7120B407B017A00E4FDFCFFFEEE
:100AFA00120B83120B731209DE120B2CEF4E60F6E7
:050B0A00120B6380F1F5
:0D0B83008E128F138C148D158A168B17227D
:070BB0007B007A007912229C
:090BA7000517E51770020516227E
:100AA300C3E517943CE51664809480400DE4F51685
:100AB300F5170515E51570020514C3E515943CE516
:100AC3001464809480400DE4F514F5150513E513C3
:100AD30070020512C3E5139418E5126480948040F4
:070AE30005E4F512F51322F2
:100B2C00E5154514700AE51745167004FE7F012281
:040B3C00E4FEFF22B2
:100B52003F065B4F666D7D077F6F777C395E7971EB
:010B62000092
:0B0B9C00EF1FAC0670011E4C70F6222B
:0B0B0F00C2B67FE8120B1AD2B67FE8D6
:100B1A00AD07AF051DEF60097FE87E03120B9C80CD
:020B2A00F122B6
:060800008B098A0A890B36
:10080600900004120951FBAAF07C007D0AFFAE029B
:100816001208F08D0C7C007D0AAF03AE021208F0C0
:100826008F0DAB09AA0A900002120951FBAAF07CAF
:10083600007D0AFFAE021208F08D0E7C007D0AAF25
:1008460003AE021208F08F0FAB09AA0A120926FBA3
:10085600AAF07C007D0AFFAE021208F08D107C0023
:100866007D0AAF03AE021208F08F11AF0CEF33957D
:10087600E0FE74522FF582740B3EF583E493F5186F
:10088600AF0DEF3395E0FE74522FF582740B3EF5F3
:1008960083E493F519AF0EEF3395E0FE74522FF50E
:1008A60082740B3EF583E493F51AAF0FEF3395E0B0
:1008B600FE74522FF582740B3EF583E493F51BAF5D
:1008C60010EF3395E0FE74522FF582740B3EF583DC
:1008D600E493F51CAF11EF3395E0FE74522FF582C9
:0908E600740B3EF583E493F51D4B
:0108EF0022E6
:100B4000900B52E493F518F519F51AF51BF51CF501
:020B50001D2264
:100B6300120B16120B0F120B0FC2B67FE8020B1AF1
:030BB700B28022E7
:1009DE00E4FDEDC39406748094805058ED146015B8
:1009EE0014601714601914601B14601D2405701C0C
:1009FE0075A0FE801775A0FD801275A0FB800D7589
:100A0E00A0F7800875A0EF800375A0DFEDFF6402EC
:100A1E006005EF6404700874182DF8E64480F674CF
:100A2E00182DF8E6F580D2A6C2A67FC47E09120B59
:040A3E009C0D809EED
:010A42002291
:100B7300438901758CFC758A18D2A9D2AFD28C2215
:03000B00020A43A3
:100A4300C0E0C0F0C083C082C0D075D000C000C079
:0D0A530001C002C003C004C005C006C007FA
:100A6000758CFC758A18051FE51F7002051EB4E819
:100A700017E51EB40312120BA7120AA3120BB01231
:080A80000800751E00751F003F
:100A8800D007D006D005D004D003D002D001D000C2
:0B0A9800D0D0D082D083D0F0D0E0326C
:1008F000C2D5EC30E709B2D5E4C39DFDE49CFCEE23
:1009000030E715B2D5E4C39FFFE49EFE120989C308
:10091000E49DFDE49CFC800312098930D507C3E403
:060920009FFFE49EFE2291
:10092600BB010A89828A83E0F5F0A3E0225006879C
:10093600F009E71922BBFE07E3F5F009E31922895E
:0B094600828A83E493F5F07401932291
:10095100BB0110E58229F582E5833AF583E0F5F0E4
:10096100A3E0225009E92582F886F008E622BBFEC1
:100971000AE92582F8E2F5F008E222E5832AF58307
:08098100E993F5F0A3E99322CC
:10098900BC000BBE0029EF8DF084FFADF022E4CC52
:10099900F875F008EF2FFFEE33FEEC33FCEE9DEC1B
:1009A900984005FCEE9DFE0FD5F0E9E4CEFD22ED61
:1009B900F8F5F0EE8420D21CFEADF075F008EF2FAB
:1009C900FFED33FD4007985006D5F0F222C398FD9C
:0509D9000FD5F0EA2239
:00000001FF
